:0C0000000C9482000C94F6000C9400009C
:10000C000C9400000C9400000C9400000C94000064
:10001C000C9400000C9400000C9400000C94000054
:10002C000C9400000C9400000C9400000C94000044
:10003C000C9400000C940E010C9400000C94000025
:10004C000C9400000C9400000C9400000C94000024
:10005C000C9400000C9400000C9400001027E80392
:10006C0064000A00010000100001100001000000F3
:10007C00000000001E0002000000D007C800F401C0
:10008C00000054005B000E00B4FFA0FFE4FF420030
:10009C0063002900CAFFACFFCAFF2A0063004100BD
:1000AC00E6FFA0FFACFFFFFF5B005400E6FFBFFFC5
:1000BC009DFFD6FF360054003600D7FF9DFFBEFFD4
:1000CC001C0060004C00F2FFA5FFACFF01002D4EA0
:1000DC00414E00494E4600000C0003007A0002001D
:1000EC001805860001001A05880002001C058A000C
:1000FC0001002405D8000000F894EE27EFBBF1E0D6
:10010C00F5BFE5BF8DE0A2E0BB27ED938A95E9F73B
:10011C0080E098E0A0E0B1E0ED930197E9F7E4EE20
:10012C00F0E085919591009761F0A591B5910590BE
:10013C001590BF01F00105900D920197E1F7FB01BD
:10014C00F0CFE0E0EEBBEFEFEDBFE8E0EEBFC0E0DC
:10015C00D3E00C94430133244424E0E0F1E03E1658
:10016C004F06DCF5E32DF42D7BD2A3ECB5EF88E440
:10017C0090E444D4A0E0B0E080E090E43FD4DF0110
:10018C00CB01E0E0F0E060E873E486D4E093000596
:10019C00F09301056093020570930305E32DF42D94
:1001AC0065D2EA0FFB1FFF93EF93A0910005B0916E
:1001BC0001058091020590910305EDD1A0E0B0E01E
:1001CC0080E097E41BD45AD3AF91BF91ED93FC938D
:1001DC00E1E0F0E03E0E4F1EC0CFE0E0F0E008950D
:1001EC00EA93FA93EFB7EA931C9B07C0E52DF62D23
:1001FC0031965E2E6F2E319706C0E52DF62D319778
:10020C005E2E6F2E3196E991EFBFF991E991189519
:10021C000A921A92FA926A937A938A939A93AA936D
:10022C00BA93EA93FA93EFB7EA93E52DF62D23D21E
:10023C008E2EE52D7E2EACE123D2E09123058E2E61
:10024C00E09122057E2EADE21BD2E1E0F0E0DE0E65
:10025C00EF1E1BD214F4DD24EE24E0E0E6BDE991A0
:10026C00EFBFF991E991B991A991999189917991FE
:10027C006991F990199009901895E0E8E093610064
:10028C00E0E0E0936100E2E2E4B9E0E0E5B9E7B96F
:10029C00E8B9E2ECEAB9E0E0EBB9E4BDE5E0E5BDD4
:1002AC00E0E0E6BDE7BDE8BDE1E0E0936E00E3E031
:1002BC00E0936900E1E0EDBBECBBE0E0E0936800AB
:1002CC00E093C000E8E0E093C100E6E0E093C200F8
:1002DC00E0E0E093C500E9E1E093C400E3E8E093DB
:1002EC008000E2E0E0938100E0E0E0938500E093A1
:1002FC008400E0938700E0938600EFEFE0938900A1
:10030C00EAEFE0938800C6D1E0936F0078944E98A2
:10031C002D9A5F9A299A1FDFB8D114F4DD24EE24AC
:10032C00AD2DBE2DEFE3F0E044D2A0D1AE0FBF1F38
:10033C00ED91FD91A92DBA2D21D29DD1A4E0B5E06E
:10034C008FD1ED93FD936D937C93E52DF62D88D194
:10035C00DF01CB01E5E8FBEE61EB7FE39DD3ABED79
:10036C00BFE089E490E44AD3DF01CB01E0E0F0E0A8
:10037C0064E373E491D3DF01CB010DD1A92DBA2D28
:10038C008FD13CD37BD266277727FE2FE0E0DF01AD
:10039C00E0910405F0910505609106057091070543
:1003AC007FD124D2D5D2E0930805F0930905609350
:1003BC000A0570930B057AD1E4E9F7E865E87CE36C
:1003CC001DD3A0910C05B0910D0580910E05909157
:1003DC000F05C5D2E0930C05F0930D0560930E0547
:1003EC0070930F05A0911005B09111058091120525
:1003FC009091130564D1ACD2E0931405F0931505DC
:10040C0060931605709317055AD1A0911805B091F9
:10041C00190546D1F3D27F936F93FF93EF93E0913D
:10042C000C05F0910D0560910E0570910F05A091D2
:10043C001A05B0911B0534D1E1D2AF91BF918F91C8
:10044C009F918DD27F936F93FF93EF93E09114055F
:10045C00F09115056091160570911705A0911C057A
:10046C00B0911D051DD1CAD2AF91BF918F919F91B3
:10047C0076D22ED1E0911E05F0911F0560912005DA
:10048C0070912105F9D1E0932205F093230529D130
:10049C0009F008F405C0E0E0FFEF6FE777E418D14E
:1004AC00A0910B05AA2342F45F984E9A1AD111F031
:1004BC0008F001C024D114C0F9D0A5D18CF45F9AF6
:1004CC004E980FD111F008F002C019D109C0E2D03A
:1004DC00E0931005E0931105E0931205E0931305EA
:1004EC00EED0E0931005F093110560931205709314
:1004FC00130512CFFFCF1A931A2FE091C000E072B0
:10050C00E1F31093C6001991089566D17B816A813D
:10051C00F981E88177FB770F67FD7160972F9E5704
:10052C0081F078F0983190F4AA27BB27882708949B
:10053C008795B795A7959A95D1F7EA23FB2368235E
:10054C0005C0E8947727EE27FF2766276F77769507
:10055C0008F4606877F9A991B99189919991EA1792
:10056C00FB076807790797FB089536D1A881B981F5
:10057C008A819B81CADFE883F9836A837B8311F4C8
:10058C00C7D007C0EEF7C4D0A0E0B0E080E89FE38E
:10059C00DFD12496089520D124971A9310E0BDD072
:1005AC00E3E8F9EF62E27EE329D2BCD0DEDFB5D01E
:1005BC001DD1CED1B7D0BBD0B3D209F008F407C04F
:1005CC00BBD0A0E0B0E080E09FE3BBD011E0A5D0B1
:1005DC00E0E0F0E060E87EE3A3D209F008F403C0A9
:1005EC009CD0A5D0AED0103031F0A6D012D1ED8376
:1005FC00FE836F837887A0D090D000D2E983FA83F2
:10060C006B837C83A4D0A1EBB4EC86E292E4F6D1AC
:10061C00DF01CB01EDE1F5EE6DE272E4E7D098D1AC
:10062C009BD0ACE4B3E584E091E499D176D0E6D1EB
:10063C007F936F93FF93EF938AD0A1E1BDEE8EED84
:10064C009FE38DD189D0AEE5BBE788EA9FE387D1E4
:10065C00AF91BF918F919F911FD2188129960895C8
:10066C006F2F660F660B762F40D10895A0E0B3E094
:10067C00EE0FFF1F0895EF2FFF27E7FDFFEF089503
:10068C003ADFA82D38DFA72D36CFE0E0FFE3ED15DC
:10069C00FE050895E0E0E0938B00E0938A00089556
:1006AC008B2F880F880B982F9ED00895A09108054A
:1006BC00B091090580910A0590910B050895E09180
:1006CC000805F091090560910A0570910B050895D4
:1006DC00E0931E05F0931F05609320057093210590
:1006EC000895A0911E05B0911F0580912005909151
:1006FC002105E0E0FFEF6FE777E412D20895E09177
:10070C002305E0938900E0912205E0938800089589
:10071C00E881F9816A817B810895AD81BE818F81E9
:10072C0098850895ED83FE836F837887F6CFE0E09C
:10073C00F0E060E07FE30895ED81FE816F817885C4
:10074C00089506D1ED83FE836F8378870895E98140
:10075C00FA816B817C810895A981BA818B819C81FE
:10076C004DD10895F195E195F0400895F09560957F
:10077C007095E195FF4F6F4F7F4F0895FA9FF02DC5
:10078C00EB9FF00DEA9FE02DF10D0895002411244C
:10079C0090E1AA0FBB1F001C111C0E1A1F0A18F4A3
:1007AC000E0E1F1E01C0A1609A9599F7FD01D00194
:1007BC00089504D0EBDF0EF4D5DF0895E894F7FF2D
:1007CC0002C0D0DF6894B7FF06C0B195A195B040C8
:1007DC0000F8039400FA08959A938A93BA93AA9313
:1007EC000895689401C0E89401D080D0182E862F0B
:1007FC00612D192E972F712D1B2EBF2FF12D1A2E17
:10080C00AE2FE12D089500240A160B0608060906E2
:10081C00089530976040704009F070580895552342
:10082C0042F4503811F4E0FF04C03196691F791F6F
:10083C006BF050E8572711F45F93CFC05F3F31F056
:10084C00660F000C57956795752F08955F930020E0
:10085C000AF0CEC0C7C050E8192E1522880F991F78
:10086C009527550F879550E8072E0522660F771FA1
:10087C007527550F67950895689401C0E8945F93A8
:10088C00F2DF703818F07F3F08F4A7C056E1571B11
:10089C00AAF4519558300EF4593030F0EFEFFFEFC9
:1008AC006FEF7FE777F91AC077275523B9F0EE0F72
:1008BC00FF1F661F771F5A95D1F710C07727583046
:1008CC0028F0EF2FF62F672F5850F9CF552331F022
:1008DC0076956795F795E7955A95D1F700200AF428
:1008EC0045DF5F910895689401C0E89430976040AB
:1008FC007040B1F0002426F0772312F4009436DF18
:10090C00172E7EE1112032F07A95EE0FFF1F661F35
:10091C00111CF9CFEF2FF62F612D5F938ADF5F91BA
:10092C0008954F93AF01FD01DA01AB01BC01CA017F
:10093C00402D012C142E4F910895EA0FFB1F681FB8
:10094C000895E095F0956095EF5FFF4F6F4F089518
:10095C005F9381DF903871F150E8152604C05F93E6
:10096C007ADF903839F1703821F1572F591B2BF160
:10097C0012F4D7DFFACF583118F0AA27BB278827F3
:10098C00583028F0AB2FB82F88275850F9CF552363
:10099C0029F08695B795A7955A95D9F7502D5125DD
:1009AC0072F0CBDF38F46795F795E795739513F4F0
:1009BC001FC0B7DF3EDF5F910895D8F7FBCFEA1B6E
:1009CC00FB0B680B51F010F40094BBDF662392F321
:1009DC00EE0FFF1F661F7A95CBF7EE27FF27BF019F
:1009EC005F910895EFEFFFEF6FE77FEF5F91089551
:1009FC00EFEFFFEF6FE77FE75F9108955F932BDFDA
:100A0C00703859F3903849F301240894791F23F472
:100A1C0024F300203AF3ECCF0F921F932F933F93C4
:100A2C004F93112722279927689FA0018F9F302D64
:100A3C00410D591F6B9F300D411D591F8E9F27D0A3
:100A4C00BF9F25D06A9F23D0BE9F1DD0AF9F1BD0C8
:100A5C00AE9F110D291F391F491F591FE32FF42F6A
:100A6C00652F522F4F913F912F911F910F9066231D
:100A7C002AF0550FEE1FFF1F661F02C073954BF235
:100A8C00CEDE5F910895100D211D391F02C0200D7F
:100A9C00311D491F591F08955F93DDDE703821F415
:100AAC0011200AF49FCFA4CF903809F496CF0124DB
:100ABC000894970B1BF4D4F30020F3CF792F1F93DA
:100ACC002F933F934F931124112722273327A901EA
:100ADC0090E2AE17BF078607410730F0AE1BBF0B85
:100AEC00860B410B089401C08894551F221F331F9D
:100AFC00111CAA1FBB1F881F441F9A9551F7F9019F
:100B0C00612D4F913F912F911F91662332F0550F1C
:100B1C00EE1FFF1F661F7A954BF281DE5F910895E1
:100B2C0099239AF0772342F0971748F029F4AE17DF
:100B3C00BF07860720F031F0989488940895989414
:100B4C00089408951894889408957723C2F79717FA
:100B5C0098F3A9F7EA17FB07680788F399F3ECCF2A
:00000001FF
